{
  "_format": "hh-sol-artifact-1",
  "contractName": "Raffle",
  "sourceName": "contracts/raffle.sol",
  "abi": [
    {
      "inputs": [
        {
          "internalType": "address",
          "name": "vrfCoordinatorV2",
          "type": "address"
        },
        {
          "internalType": "uint256",
          "name": "entranceFee",
          "type": "uint256"
        },
        {
          "internalType": "bytes32",
          "name": "gasLane",
          "type": "bytes32"
        },
        {
          "internalType": "uint64",
          "name": "subscriptionId",
          "type": "uint64"
        },
        {
          "internalType": "uint32",
          "name": "callbackGasLimit",
          "type": "uint32"
        },
        {
          "internalType": "uint256",
          "name": "interval",
          "type": "uint256"
        }
      ],
      "stateMutability": "nonpayable",
      "type": "constructor"
    },
    {
      "inputs": [
        {
          "internalType": "address",
          "name": "have",
          "type": "address"
        },
        {
          "internalType": "address",
          "name": "want",
          "type": "address"
        }
      ],
      "name": "OnlyCoordinatorCanFulfill",
      "type": "error"
    },
    {
      "inputs": [],
      "name": "Raffle_NotOpen",
      "type": "error"
    },
    {
      "inputs": [],
      "name": "Raffle_TransferFailed",
      "type": "error"
    },
    {
      "inputs": [],
      "name": "Raffle__NotEnoughETHEntered",
      "type": "error"
    },
    {
      "inputs": [
        {
          "internalType": "uint256",
          "name": "currentBalance",
          "type": "uint256"
        },
        {
          "internalType": "uint256",
          "name": "numPlayers",
          "type": "uint256"
        },
        {
          "internalType": "uint256",
          "name": "raffleState",
          "type": "uint256"
        }
      ],
      "name": "Raffle__UpkeepNotNeeded",
      "type": "error"
    },
    {
      "anonymous": false,
      "inputs": [
        {
          "indexed": true,
          "internalType": "address",
          "name": "player",
          "type": "address"
        }
      ],
      "name": "RaffleEnter",
      "type": "event"
    },
    {
      "anonymous": false,
      "inputs": [
        {
          "indexed": true,
          "internalType": "uint256",
          "name": "requestId",
          "type": "uint256"
        }
      ],
      "name": "RequestedRaffleWinner",
      "type": "event"
    },
    {
      "anonymous": false,
      "inputs": [
        {
          "indexed": true,
          "internalType": "address",
          "name": "winner",
          "type": "address"
        }
      ],
      "name": "WinnerPicked",
      "type": "event"
    },
    {
      "inputs": [
        {
          "internalType": "bytes",
          "name": "",
          "type": "bytes"
        }
      ],
      "name": "checkUpkeep",
      "outputs": [
        {
          "internalType": "bool",
          "name": "upkeepNeeded",
          "type": "bool"
        },
        {
          "internalType": "bytes",
          "name": "",
          "type": "bytes"
        }
      ],
      "stateMutability": "view",
      "type": "function"
    },
    {
      "inputs": [],
      "name": "enterRaffle",
      "outputs": [],
      "stateMutability": "payable",
      "type": "function"
    },
    {
      "inputs": [],
      "name": "getEntranceFee",
      "outputs": [
        {
          "internalType": "uint256",
          "name": "",
          "type": "uint256"
        }
      ],
      "stateMutability": "view",
      "type": "function"
    },
    {
      "inputs": [],
      "name": "getLatestTimeStamp",
      "outputs": [
        {
          "internalType": "uint256",
          "name": "",
          "type": "uint256"
        }
      ],
      "stateMutability": "view",
      "type": "function"
    },
    {
      "inputs": [],
      "name": "getNumWords",
      "outputs": [
        {
          "internalType": "uint256",
          "name": "",
          "type": "uint256"
        }
      ],
      "stateMutability": "pure",
      "type": "function"
    },
    {
      "inputs": [],
      "name": "getNumberOfPlayers",
      "outputs": [
        {
          "internalType": "uint256",
          "name": "",
          "type": "uint256"
        }
      ],
      "stateMutability": "view",
      "type": "function"
    },
    {
      "inputs": [
        {
          "internalType": "uint256",
          "name": "index",
          "type": "uint256"
        }
      ],
      "name": "getPlayer",
      "outputs": [
        {
          "internalType": "address",
          "name": "",
          "type": "address"
        }
      ],
      "stateMutability": "view",
      "type": "function"
    },
    {
      "inputs": [],
      "name": "getRaffleState",
      "outputs": [
        {
          "internalType": "enum Raffle.RaffleState",
          "name": "",
          "type": "uint8"
        }
      ],
      "stateMutability": "view",
      "type": "function"
    },
    {
      "inputs": [],
      "name": "getRecentWinner",
      "outputs": [
        {
          "internalType": "address",
          "name": "",
          "type": "address"
        }
      ],
      "stateMutability": "view",
      "type": "function"
    },
    {
      "inputs": [],
      "name": "getRequestConfirmations",
      "outputs": [
        {
          "internalType": "uint256",
          "name": "",
          "type": "uint256"
        }
      ],
      "stateMutability": "pure",
      "type": "function"
    },
    {
      "inputs": [
        {
          "internalType": "bytes",
          "name": "",
          "type": "bytes"
        }
      ],
      "name": "performUpkeep",
      "outputs": [],
      "stateMutability": "nonpayable",
      "type": "function"
    },
    {
      "inputs": [
        {
          "internalType": "uint256",
          "name": "requestId",
          "type": "uint256"
        },
        {
          "internalType": "uint256[]",
          "name": "randomWords",
          "type": "uint256[]"
        }
      ],
      "name": "rawFulfillRandomWords",
      "outputs": [],
      "stateMutability": "nonpayable",
      "type": "function"
    }
  ],
  "bytecode": "0x6101206040523480156200001257600080fd5b506040516200170a3803806200170a8339818101604052810190620000389190620001a9565b858073ffffffffffffffffffffffffffffffffffffffff1660808173ffffffffffffffffffffffffffffffffffffffff1660601b8152505050846000819055508573ffffffffffffffffffffffffffffffffffffffff1660a08173ffffffffffffffffffffffffffffffffffffffff1660601b815250508360c081815250508267ffffffffffffffff1660e08167ffffffffffffffff1660c01b815250508163ffffffff166101008163ffffffff1660e01b815250506000600260146101000a81548160ff02191690836001811115620001175762000116620002b1565b5b0217905550426003819055508060048190555050505050505062000367565b6000815190506200014781620002e5565b92915050565b6000815190506200015e81620002ff565b92915050565b600081519050620001758162000319565b92915050565b6000815190506200018c8162000333565b92915050565b600081519050620001a3816200034d565b92915050565b60008060008060008060c08789031215620001c957620001c8620002e0565b5b6000620001d989828a0162000136565b9650506020620001ec89828a0162000164565b9550506040620001ff89828a016200014d565b94505060606200021289828a0162000192565b93505060806200022589828a016200017b565b92505060a06200023889828a0162000164565b9150509295509295509295565b6000620002528262000263565b9050919050565b6000819050919050565b600073ffffffffffffffffffffffffffffffffffffffff82169050919050565b6000819050919050565b600063ffffffff82169050919050565b600067ffffffffffffffff82169050919050565b7f4e487b7100000000000000000000000000000000000000000000000000000000600052602160045260246000fd5b600080fd5b620002f08162000245565b8114620002fc57600080fd5b50565b6200030a8162000259565b81146200031657600080fd5b50565b620003248162000283565b81146200033057600080fd5b50565b6200033e816200028d565b81146200034a57600080fd5b50565b62000358816200029d565b81146200036457600080fd5b50565b60805160601c60a05160601c60c05160e05160c01c6101005160e01c61134b620003bf60003960006105e0015260006105bd0152600061059c015260006105600152600081816102d20152610326015261134b6000f3fe6080604052600436106100a75760003560e01c8063473f1ddc11610064578063473f1ddc1461018957806353a2c19a146101b45780635f1b0fd8146101df5780636e04ff0d1461020a578063e55ae4e814610248578063fd6673f514610285576100a7565b806309bc33a7146100ac578063115cbaf5146100d75780631fe543e3146101025780632cfcc5391461012b578063320229eb146101355780634585e33b14610160575b600080fd5b3480156100b857600080fd5b506100c16102b0565b6040516100ce9190610f51565b60405180910390f35b3480156100e357600080fd5b506100ec6102b9565b6040516100f99190610f36565b60405180910390f35b34801561010e57600080fd5b5061012960048036038101906101249190610d2a565b6102d0565b005b610133610390565b005b34801561014157600080fd5b5061014a61049e565b6040516101579190610f51565b60405180910390f35b34801561016c57600080fd5b5061018760048036038101906101829190610c3a565b6104a8565b005b34801561019557600080fd5b5061019e6106a8565b6040516101ab9190610e6f565b60405180910390f35b3480156101c057600080fd5b506101c96106d2565b6040516101d69190610f51565b60405180910390f35b3480156101eb57600080fd5b506101f46106e1565b6040516102019190610f51565b60405180910390f35b34801561021657600080fd5b50610231600480360381019061022c9190610c87565b6106ee565b60405161023f929190610eb3565b60405180910390f35b34801561025457600080fd5b5061026f600480360381019061026a9190610cd0565b61077d565b60405161027c9190610e6f565b60405180910390f35b34801561029157600080fd5b5061029a6107c5565b6040516102a79190610f51565b60405180910390f35b60008054905090565b6000600260149054906101000a900460ff16905090565b7f000000000000000000000000000000000000000000000000000000000000000073ffffffffffffffffffffffffffffffffffffffff163373ffffffffffffffffffffffffffffffffffffffff161461038257337f00000000000000000000000000000000000000000000000000000000000000006040517f1cf993f4000000000000000000000000000000000000000000000000000000008152600401610379929190610e8a565b60405180910390fd5b61038c82826107d2565b5050565b6000543410156103cc576040517fbd4e069500000000000000000000000000000000000000000000000000000000815260040160405180910390fd5b600060018111156103e0576103df61122b565b5b600260149054906101000a900460ff1660018111156104025761040161122b565b5b14610439576040517fd6e19a8d00000000000000000000000000000000000000000000000000000000815260040160405180910390fd5b6001339080600181540180825580915050600190039060005260206000200160009091909190916101000a81548173ffffffffffffffffffffffffffffffffffffffff021916908373ffffffffffffffffffffffffffffffffffffffff160217905550565b6000600354905090565b60006104c2604051806020016040528060008152506106ee565b509050806105315747600180549050600260149054906101000a900460ff1660018111156104f3576104f261122b565b5b6040517f584327aa00000000000000000000000000000000000000000000000000000000815260040161052893929190610f6c565b60405180910390fd5b6001600260146101000a81548160ff021916908360018111156105575761055661122b565b5b021790555060007f000000000000000000000000000000000000000000000000000000000000000073ffffffffffffffffffffffffffffffffffffffff16635d3b1d307f00000000000000000000000000000000000000000000000000000000000000007f000000000000000000000000000000000000000000000000000000000000000060037f000000000000000000000000000000000000000000000000000000000000000060016040518663ffffffff1660e01b8152600401610621959493929190610ee3565b602060405180830381600087803b15801561063b57600080fd5b505af115801561064f573d6000803e3d6000fd5b505050506040513d601f19601f820116820180604052508101906106739190610cfd565b9050807fcd6e45c8998311cab7e9d4385596cac867e20a0587194b954fa3a731c93ce78b60405160405180910390a250505050565b6000600260009054906101000a900473ffffffffffffffffffffffffffffffffffffffff16905090565b6000600163ffffffff16905090565b6000600361ffff16905090565b600060606000600260149054906101000a900460ff1660018111156107165761071561122b565b5b6000600181111561072a5761072961122b565b5b149050600060045460035442610740919061104c565b119050600080600180549050119050600080471190508380156107605750825b80156107695750815b80156107725750805b955050505050915091565b6000600182815481106107935761079261125a565b5b9060005260206000200160009054906101000a900473ffffffffffffffffffffffffffffffffffffffff169050919050565b6000600180549050905090565b6000600180549050826000815181106107ee576107ed61125a565b5b6020026020010151610800919061119c565b90506000600182815481106108185761081761125a565b5b9060005260206000200160009054906101000a900473ffffffffffffffffffffffffffffffffffffffff16905080600260006101000a81548173ffffffffffffffffffffffffffffffffffffffff021916908373ffffffffffffffffffffffffffffffffffffffff1602179055506000600260146101000a81548160ff021916908360018111156108ac576108ab61122b565b5b0217905550600067ffffffffffffffff8111156108cc576108cb611289565b5b6040519080825280602002602001820160405280156108fa5781602001602082028036833780820191505090505b5060019080519060200190610910929190610a05565b504260038190555060008173ffffffffffffffffffffffffffffffffffffffff164760405161093e90610e5a565b60006040518083038185875af1925050503d806000811461097b576040519150601f19603f3d011682016040523d82523d6000602084013e610980565b606091505b50509050806109bb576040517fba31c4f300000000000000000000000000000000000000000000000000000000815260040160405180910390fd5b8173ffffffffffffffffffffffffffffffffffffffff167f5b690ec4a06fe979403046eaeea5b3ce38524683c3001f662c8b5a829632f7df60405160405180910390a25050505050565b828054828255906000526020600020908101928215610a7e579160200282015b82811115610a7d5782518260006101000a81548173ffffffffffffffffffffffffffffffffffffffff021916908373ffffffffffffffffffffffffffffffffffffffff16021790555091602001919060010190610a25565b5b509050610a8b9190610a8f565b5090565b5b80821115610aa8576000816000905550600101610a90565b5090565b6000610abf610aba84610fc8565b610fa3565b90508083825260208201905082856020860282011115610ae257610ae16112c2565b5b60005b85811015610b125781610af88882610c10565b845260208401935060208301925050600181019050610ae5565b5050509392505050565b6000610b2f610b2a84610ff4565b610fa3565b905082815260208101848484011115610b4b57610b4a6112c7565b5b610b56848285611129565b509392505050565b600082601f830112610b7357610b726112bd565b5b8135610b83848260208601610aac565b91505092915050565b60008083601f840112610ba257610ba16112bd565b5b8235905067ffffffffffffffff811115610bbf57610bbe6112b8565b5b602083019150836001820283011115610bdb57610bda6112c2565b5b9250929050565b600082601f830112610bf757610bf66112bd565b5b8135610c07848260208601610b1c565b91505092915050565b600081359050610c1f816112fe565b92915050565b600081519050610c34816112fe565b92915050565b60008060208385031215610c5157610c506112d1565b5b600083013567ffffffffffffffff811115610c6f57610c6e6112cc565b5b610c7b85828601610b8c565b92509250509250929050565b600060208284031215610c9d57610c9c6112d1565b5b600082013567ffffffffffffffff811115610cbb57610cba6112cc565b5b610cc784828501610be2565b91505092915050565b600060208284031215610ce657610ce56112d1565b5b6000610cf484828501610c10565b91505092915050565b600060208284031215610d1357610d126112d1565b5b6000610d2184828501610c25565b91505092915050565b60008060408385031215610d4157610d406112d1565b5b6000610d4f85828601610c10565b925050602083013567ffffffffffffffff811115610d7057610d6f6112cc565b5b610d7c85828601610b5e565b9150509250929050565b610d8f81611080565b82525050565b610d9e81611092565b82525050565b610dad8161109e565b82525050565b6000610dbe82611025565b610dc88185611030565b9350610dd8818560208601611138565b610de1816112d6565b840191505092915050565b610df581611117565b82525050565b6000610e08600083611041565b9150610e13826112e7565b600082019050919050565b610e27816110bb565b82525050565b610e36816110e9565b82525050565b610e45816110f3565b82525050565b610e5481611103565b82525050565b6000610e6582610dfb565b9150819050919050565b6000602082019050610e846000830184610d86565b92915050565b6000604082019050610e9f6000830185610d86565b610eac6020830184610d86565b9392505050565b6000604082019050610ec86000830185610d95565b8181036020830152610eda8184610db3565b90509392505050565b600060a082019050610ef86000830188610da4565b610f056020830187610e4b565b610f126040830186610e1e565b610f1f6060830185610e3c565b610f2c6080830184610e3c565b9695505050505050565b6000602082019050610f4b6000830184610dec565b92915050565b6000602082019050610f666000830184610e2d565b92915050565b6000606082019050610f816000830186610e2d565b610f8e6020830185610e2d565b610f9b6040830184610e2d565b949350505050565b6000610fad610fbe565b9050610fb9828261116b565b919050565b6000604051905090565b600067ffffffffffffffff821115610fe357610fe2611289565b5b602082029050602081019050919050565b600067ffffffffffffffff82111561100f5761100e611289565b5b611018826112d6565b9050602081019050919050565b600081519050919050565b600082825260208201905092915050565b600081905092915050565b6000611057826110e9565b9150611062836110e9565b925082821015611075576110746111cd565b5b828203905092915050565b600061108b826110c9565b9050919050565b60008115159050919050565b6000819050919050565b60008190506110b6826112ea565b919050565b600061ffff82169050919050565b600073ffffffffffffffffffffffffffffffffffffffff82169050919050565b6000819050919050565b600063ffffffff82169050919050565b600067ffffffffffffffff82169050919050565b6000611122826110a8565b9050919050565b82818337600083830152505050565b60005b8381101561115657808201518184015260208101905061113b565b83811115611165576000848401525b50505050565b611174826112d6565b810181811067ffffffffffffffff8211171561119357611192611289565b5b80604052505050565b60006111a7826110e9565b91506111b2836110e9565b9250826111c2576111c16111fc565b5b828206905092915050565b7f4e487b7100000000000000000000000000000000000000000000000000000000600052601160045260246000fd5b7f4e487b7100000000000000000000000000000000000000000000000000000000600052601260045260246000fd5b7f4e487b7100000000000000000000000000000000000000000000000000000000600052602160045260246000fd5b7f4e487b7100000000000000000000000000000000000000000000000000000000600052603260045260246000fd5b7f4e487b7100000000000000000000000000000000000000000000000000000000600052604160045260246000fd5b600080fd5b600080fd5b600080fd5b600080fd5b600080fd5b600080fd5b6000601f19601f8301169050919050565b50565b600281106112fb576112fa61122b565b5b50565b611307816110e9565b811461131257600080fd5b5056fea2646970667358221220a0c75e80020f4f84c3dddf18c590663262fe0d67f8a05a0438753c4f5145413864736f6c63430008070033",
  "linkReferences": {},
  "deployedLinkReferences": {}
}